:020000040000FA
:0400000037EF13F0D3
:1008000000456E636F6465723A2025752575257500
:10081000005269676874202020202000466F72779C
:10082000617264202020004261636B7761726420F2
:1008300020004C656674202020202000436F6E6EDF
:0708400065637465640000AC
:100848002B50800B386E2B502B243A6E2AAE2FEF8C
:1008580004F031EF04F034EF04F03A8034EF04F0A0
:100868003A50D8B43AEF04F03CEF04F053EF04F0F8
:100878003A28D8A442EF04F044EF04F04EEF04F015
:10088800000E286E000E296E000E2A6E000E2B6ECA
:100898004EEF04F02A8E000E2B6E5DEF04F0000E72
:1008A800286E000E296E000E2A6E000E2B6E5DEF6C
:1008B80004F02F50800B396E38503918D8B467EFD0
:1008C80004F069EF04F06CEF04F0388C6CEF04F07E
:1008D8002F502F24396E2EAE74EF04F076EF04F00B
:1008E80079EF04F0398079EF04F03950D8B47FEF0C
:1008F80004F081EF04F098EF04F03928D8A487EFCA
:1009080004F089EF04F093EF04F0000E2C6E000E53
:100918002D6E000E2E6E000E2F6E93EF04F02E8EAD
:10092800000E2F6EA2EF04F0000E2C6E000E2D6E3E
:10093800000E2E6E000E2F6EA2EF04F03A50395CB6
:10094800D8B0A9EF04F0ABEF04F0D6EF04F038AC60
:10095800B0EF04F0B2EF04F0B6EF04F0800E381AEE
:10096800B6EF04F03AC03BF039C03AF03BC039F07A
:1009780028C03BF02CC028F03BC02CF029C03BF02D
:100988002DC029F03BC02DF02AC03BF02EC02AF024
:100998003BC02EF02BC03BF02FC02BF03BC02FF0FC
:1009A800D6EF04F0000E3B6E3A50306E316A301EBE
:1009B800311E304A312A3950326E336A305032266D
:1009C8003150332233BEF2EF04F0335009E11A0EEE
:1009D800325CD8A0F2EF04F0F4EF04F031EF05F048
:1009E800285029102A102B10D8A4FDEF04F000EF8E
:1009F80005F0010E01EF05F0000E3B6E000E286EAB
:100A0800000E296E000E2A6E000E2B6E39C03AF0C9
:100A18003CEF05F031EF05F03BA015EF05F017EFBF
:100A280005F01DEF05F0D8903B3001093B6E21EF32
:100A380005F0D8903B3221EF05F028A026EF05F00D
:100A480028EF05F02BEF05F03B8E2BEF05F02B344C
:100A58002B322A32293228323A2A39503A5CD8A025
:100A680038EF05F03AEF05F010EF05F03CEF05F030
:100A780038BC41EF05F043EF05F08BEF05F03A5035
:100A8800D8A449EF05F04BEF05F057EF05F0000E3D
:100A9800286E000E296E000E2A6E000E2B6EE5EFF2
:100AA80006F0E5EF06F02C5028262D5029222E506E
:100AB8002A222F502B222BA064EF05F066EF05F0B9
:100AC8003BEF06F03BA06BEF05F06DEF05F073EF21
:100AD80005F0D8903B3001093B6E77EF05F0D890D0
:100AE8003B3277EF05F028A07CEF05F07EEF05F0AC
:100AF80081EF05F03B8E81EF05F02B342B322A3243
:100B0800293228323A2A3BEF06F03BEF06F02C5008
:100B1800285C2D5029582E502A582B50800A306EA8
:100B28002F50800A3058D8B09CEF05F09EEF05F0A2
:100B3800DCEF05F028C030F029C031F02AC032F0CF
:100B48002BC033F0301E311E321E331E302A000EE9
:100B58003122322233222C503024346E2D50312051
:100B6800356E2E503220366E2F503320376EFF0EE2
:100B78003424286EFF0E3520296EFF0E36202A6E8B
:100B8800FF0E37202B6E800E381A3B6C3B50D8A4D2
:100B9800D0EF05F0D2EF05F0E4EF05F0010E2826BE
:100BA800000E29222A222B22E4EF05F0E4EF05F0BB
:100BB8002C50285E2D50295A2E502A5A2F502B5A25
:100BC800285029102A102B10D8A4EDEF05F0EFEFCC
:100BD80005F030EF06F03B50D8A4F5EF05F0F7EF3D
:100BE80005F030EF06F0000E286E000E296E000E9C
:100BF8002A6E000E2B6EE5EF06F0E5EF06F030EFFB
:100C080006F0D890283629362A362B363BAE0FEF19
:100C180006F011EF06F014EF06F0288014EF06F046
:100C28003BA019EF06F01BEF06F01FEF06F0D88087
:100C38003B3623EF06F0D8903B3623EF06F03A50C8
:100C4800D8B429EF06F02BEF06F030EF06F03A069D
:100C580030EF06F030EF06F02AAE35EF06F037EF4A
:100C680006F005EF06F03BEF06F03BEF06F0000E4E
:100C7800396E3BAE42EF06F044EF06F060EF06F047
:100C88003BC030F07F0E3016D8B44DEF06F04FEF72
:100C980006F053EF06F0010E396E60EF06F028A05B
:100CA80058EF06F05AEF06F060EF06F0010E396EC5
:100CB80060EF06F060EF06F03950D8B466EF06F042
:100CC80068EF06F099EF06F0010E2826000E29229B
:100CD8002A222B222BA073EF06F075EF06F099EF6E
:100CE80006F028C030F029C031F02AC032F02BC0FD
:100CF80033F03334333232323132303230C028F0CC
:100D080031C029F032C02AF033C02BF03A28D8B4C9
:100D180090EF06F092EF06F099EF06F03A2A99EF75
:100D280006F099EF06F099EF06F03A28D8B49FEF4D
:100D380006F0A1EF06F0ABEF06F03A50D8A4A7EF03
:100D480006F0A9EF06F0C1EF06F0ABEF06F0000ED3
:100D5800286E000E296E000E2A6E000E2B6E3A5079
:100D6800D8A4B9EF06F0BBEF06F0C1EF06F0000E0D
:100D7800386EC1EF06F0C1EF06F03AA0C6EF06F0F4
:100D8800C8EF06F0CBEF06F02A8ECEEF06F02A9ECB
:100D9800CEEF06F0D8903A302B6E38AED6EF06F08C
:100DA800D8EF06F0DBEF06F02B8EDBEF06F028C05D
:100DB80028F029C029F02AC02AF02BC02BF0E5EF33
:100DC80006F012001250800B1F6E12501224266E6D
:100DD80011AEF1EF06F0F3EF06F0F6EF06F026801D
:100DE800F6EF06F02650D8B4FCEF06F0FEEF06F05A
:100DF80015EF07F02628D8A404EF07F006EF07F050
:100E080010EF07F0000E0F6E000E106E000E116E40
:100E1800000E126E10EF07F0118E000E126E1FEF0B
:100E280007F0000E0F6E000E106E000E116E000E11
:100E3800126E1FEF07F01650800B1F1A165016245B
:100E4800276E15AE2AEF07F02CEF07F02FEF07F00B
:100E580027802FEF07F02750D8B435EF07F037EF8A
:100E680007F04EEF07F02728D8A43DEF07F03FEF33
:100E780007F049EF07F0000E136E000E146E000E17
:100E8800156E000E166E49EF07F0158E000E166EE1
:100E980058EF07F0000E136E000E146E000E156E5C
:100EA800000E166E58EF07F0135014101510161098
:100EB800D8A461EF07F063EF07F07DEF07F0000EAD
:100EC8000F6E000E106E000E116E000E126E800E68
:100ED80011127F0E12121F5012120FC00FF010C005
:100EE80010F011C011F012C012F0F5EF08F0F5EF94
:100EF80008F02650D8A483EF07F085EF07F099EFA4
:100F080007F0000E0F6E000E106E000E116E000E30
:100F1800126E0FC00FF010C010F011C011F012C007
:100F280012F0F5EF08F0F5EF08F02750176E186A81
:100F3800171E181E174A182A2650196E1A6A1750B3
:100F4800192618501A227F0E1924206E000E1A2016
:100F5800216E0FC01BF010C01CF011C01DF012C094
:100F68001EF0000E0F6E000E106E000E116E000EB9
:100F7800126E000E226E000E236E000E246E000EFE
:100F8800256E000E276E05EF08F02750D8B4CFEF76
:100F980007F0D1EF07F0EAEF07F0D8901B361C36C0
:100FA8001D361E36D8900F3610361136123625AE3D
:100FB800E0EF07F0E2EF07F0E3EF07F00F80D890DB
:100FC8002236233624362536EAEF07F013501B5C09
:100FD80014501C5815501D5816501E58D8A0F7EF1D
:100FE80007F0F9EF07F004EF08F0258C13501B5EAB
:100FF80014501C5A15501D5A16501E5A04EF08F06A
:10100800272A190E27640BEF08F00DEF08F0C9EF37
:1010180007F00FEF08F01B501C101D101E10D8B45D
:1010280018EF08F01AEF08F036EF08F0228036EFD4
:1010380008F036EF08F0D8900F3610361136123611
:1010480025AE29EF08F02BEF08F02CEF08F00F8001
:10105800D89022362336243625362006D8A02106F5
:1010680036EF08F011AE3BEF08F03DEF08F01FEF48
:1010780008F03FEF08F0000E276E25AE46EF08F0A7
:1010880048EF08F070EF08F0FF0E2214176EFF0EFD
:101098002314186EFF0E2414196E7F0E25141A6E71
:1010A8001750181019101A10D8B45DEF08F05FEF38
:1010B80008F063EF08F0010E276E70EF08F00FA03C
:1010C80068EF08F06AEF08F070EF08F0010E276E7D
:1010D80070EF08F070EF08F02750D8B476EF08F0FA
:1010E80078EF08F0A0EF08F0010E0F26000E10228E
:1010F8001122122212A083EF08F085EF08F0A0EF6A
:1011080008F00FC017F010C018F011C019F012C085
:101118001AF01A341A3219321832173217C00FF06F
:1011280018C010F019C011F01AC012F0204A212A74
:10113800A0EF08F0A0EF08F021BEABEF08F02150B7
:1011480008E12028D8A0ABEF08F0ADEF08F0BAEF1F
:1011580008F0000E216E2068000E0F6E000E106E53
:10116800000E116E000E126EBAEF08F021BEC7EF26
:1011780008F0215006E12004D8B0C5EF08F0C7EF09
:1011880008F0D7EF08F0000E216E000E206E000E5A
:101198000F6E000E106E000E116E000E126E000E15
:1011A8001F6ED7EF08F020C026F026A0DEEF08F06B
:1011B800E0EF08F0E3EF08F0118EE6EF08F0119E7B
:1011C800E6EF08F0D8902630126E1F5012120FC0AA
:1011D8000FF010C010F011C011F012C012F0F5EFAE
:1011E80008F01200000165BFFCEF08F0FEEF08F000
:1011F80001EF09F0669301EF09F065BF0EEF09F002
:10120800655106E16405D8B00CEF09F00EEF09F05E
:1012180014EF09F0000E2F6E010E2E6E18EF09F074
:1012280064C02EF065C02FF062C030F063C031F0AA
:101238001EC032F01FC033F020C034F021C035F09A
:1012480022C036F023C037F024C038F025C039F06A
:10125800000E3B6E1F0E3A6E680E3A24D96E000ED1
:101268003B20DA6E000EDF6EB2EF09F03A06D8A026
:101278003B06680E3A24D96E000E3B20DA6E32C067
:1012880001F033C002F034C003F035C004F036C0BA
:1012980005F037C006F038C007F039C008F00A0E6C
:1012A800096E000E0A6E000E0B6E000E0C6E000E1C
:1012B8000D6E000E0E6E000E0F6E000E106E7CECA2
:1012C8000DF001C026F002C027F003C028F004C0CA
:1012D80029F005C02AF006C02BF007C02CF008C082
:1012E8002DF02650300FDF6E2E06D8A02F063006C0
:1012F800D8A0310632C001F033C002F034C003F088
:1013080035C004F036C005F037C006F038C007F025
:1013180039C008F00A0E096E000E0A6E000E0B6E38
:10132800000E0C6E000E0D6E000E0E6E000E0F6E8F
:10133800000E106EFAEC0CF001C032F002C033F06F
:1013480003C034F004C035F005C036F006C037F0ED
:1013580007C038F008C039F0B2EF09F03A503B1036
:10136800D8B4B9EF09F0BBEF09F0F2EF09F0325049
:101378003310341035103610371038103910D8A4FF
:10138800C8EF09F0CAEF09F03AEF09F02FBED7EF1E
:1013980009F02F5006E12E04D8B0D5EF09F0D7EFA9
:1013A80009F03AEF09F031BEE2EF09F0315008E1F7
:1013B8003004D8A0E2EF09F0E4EF09F0F2EF09F009
:1013C800000166B3EAEF09F0ECEF09F03AEF09F033
:1013D800F2EF09F0F2EF09F0F2EF09F01CC011F09A
:1013E8001DC012F0680E3A24136E000E3B20146ED6
:1013F80030C015F031C016F05DEC0EF011C01CF0D5
:1014080012C01DF008EF0AF01200096E0950D8B496
:1014180010EF0AF012EF0AF034EF0AF004BE19EFE9
:101428000AF017EF0AF034EF0AF001C005F002C025
:1014380006F003C007F004C008F0051E061E071ECC
:10144800081E052A000E06220722082205C00BF0F6
:1014580006C00CF007C00DF008C00EF03EEF0AF011
:1014680001C00BF002C00CF003C00DF004C00EF078
:101478003EEF0AF00150021003100410D8A447EF01
:101488000AF049EF0AF055EF0AF0000E016E000E5F
:10149800026E000E036E000E046EF6EF0AF0F6EF11
:1014A8000AF0960E0A6E61EF0AF00A2AD8900E32F8
:1014B8000D320C320B3261EF0AF0000E0B14056E80
:1014C800000E0C14066E000E0D14076EFE0E0E14A0
:1014D800086E0550061007100810D8A476EF0AF019
:1014E80078EF0AF059EF0AF088EF0AF088EF0AF06F
:1014F8000A2A010E0B26000E0C220D220E22D8906D
:101508000E320D320C320B32000E0B14056E000E2B
:101518000C14066E000E0D14076EFF0E0E14086EE6
:101528000550061007100810D8A49DEF0AF09FEF89
:101538000AF07CEF0AF0ABEF0AF0ABEF0AF00A060C
:10154800D8900B360C360D360E36ABEF0AF00DBEC2
:10155800B0EF0AF0B2EF0AF0BCEF0AF0020E0A6030
:10156800B8EF0AF0BAEF0AF0A3EF0AF0BCEF0AF0FE
:101578000AB0C1EF0AF0C3EF0AF0C6EF0AF00D9EF9
:10158800C6EF0AF0D8900A320AC005F0066A076A60
:10159800086A05C008F0076A066A056A05500B1252
:1015A80006500C1207500D1208500E120950D8B4EC
:1015B800E0EF0AF0E2EF0AF0ECEF0AF004BEE9EF20
:1015C8000AF0E7EF0AF0ECEF0AF00E8EECEF0AF003
:1015D8000BC001F00CC002F00DC003F00EC004F007
:1015E800F6EF0AF012003EC0D9FF3FC0DAFFDECFA7
:1015F800F6FFDDCFF7FF0800F550250AD8A407EF5E
:101608000BF009EF0BF0AAEF0BF03EC0D9FF3FC07B
:10161800DAFFDE2A000EDD22000E0001636F000EE5
:10162800626F62C066F063C067F0646965693EC056
:10163800D9FF3FC0DAFFDECFF6FFDDCFF7FF0800A6
:10164800F550750AD8A42BEF0BF02DEF0BF070EFC7
:101658000BF03EC0D9FF3FC0DAFFDE2A000EDD22C4
:1016680040C0D9FF41C0DAFFDFCF42F0020EDE26CC
:10167800DFCF43F0000EDD2242C0D9FF43C0DAFFBE
:10168800DECF44F0DDCF45F044C046F045C047F01A
:10169800486A496A4A6A4B6A4C6A4D6A3CC01CF0FF
:1016A8003DC01DF046C01EF047C01FF048C020F0E6
:1016B80049C021F04AC022F04BC023F04CC024F0AE
:1016C8004DC025F0F6EC08F01CC03CF01DC03DF004
:1016D800C9EF0BF0C9EF0BF03EC0D9FF3FC0DAFFEE
:1016E800DECFF6FFDDCFF7FF0800F550250AD8A4B6
:1016F80080EF0BF082EF0BF09BEF0BF03EC0D9FFB1
:101708003FC0DAFFDE2A000EDD22000E026E250E33
:10171800016E3CC003F03DC004F0EEEC0DF0000E8D
:101728003D6E010E3C6EC9EF0BF0C9EF0BF03EC0E9
:10173800D9FF3FC0DAFFDE2A000EDD22000E3D6E23
:10174800000E3C6EC9EF0BF0C9EF0BF03EC0D9FF9D
:101758003FC0DAFFDECFF6FFDDCFF7FF0800F55018
:10176800016E026A3CC003F03DC004F0EEEC0DF0DF
:101778003EC0D9FF3FC0DAFFDE2A000EDD22000E90
:101788003D6E010E3C6EC9EF0BF0120003340434B9
:101798000A6E0A50D8A4D3EF0BF0D5EF0BF0E1EFA7
:1017A8000BF0000E016E000E026E000E036E000EAE
:1017B800046E72EF0CF072EF0CF001C005F002C07D
:1017C80006F003C007F004C008F0200EF1EF0BF09C
:1017D800D8900832073206320532E82EECEF0BF0CB
:1017E8000550096E038EFF0E0116FF0E0216FF0E3E
:1017F8000316000E0416960E0A5E0ABE08EF0CF0D9
:1018080006EF0CF02CEF0CF00A50800A970FD8B0B6
:1018180010EF0CF012EF0CF020EF0CF0000E016E40
:10182800000E026E000E036E000E046E72EF0CF0D6
:1018380072EF0CF020EF0CF0D89004320332023231
:1018480001320A3E20EF0CF056EF0CF056EF0CF088
:101858001F0E0A6432EF0CF034EF0CF04AEF0CF074
:10186800000E016E000E026E000E036E000E046E76
:1018780072EF0CF072EF0CF04AEF0CF0D8900136D2
:101888000236033604360A064AEF0CF00A50D8A48A
:1018980050EF0CF052EF0CF042EF0CF056EF0CF05A
:1018A80056EF0CF00950D8B45CEF0CF05EEF0CF07A
:1018B80068EF0CF0041E031E021E016C000E0222CB
:1018C8000322042268EF0CF001C001F002C002F00C
:1018D80003C003F004C004F072EF0CF01200720EA3
:1018E800D36E000E956E000E936E8368000E816EA7
:1018F80082689288200ED56E000ED76E000ED66EC6
:10190800000E0001AB6F800E3C6E250E3D6E000E82
:101918003E6E000E3F6E8AEC10F001EC13F0000EE4
:10192800026E320E016E54EC11F03C0E026E080E7F
:10193800036EE2EC12F0A1EF0CF028EC13F00001BA
:10194800AB6F310EAB19D8A4ACEF0CF0AEEF0CF0C6
:10195800B8EF0CF0000EA36F010EA26FDAEC0FF0D7
:10196800829C829EB8EF0CF0320E0001AB19D8A40D
:10197800C0EF0CF0C2EF0CF0CCEF0CF0000EA36F30
:10198800010EA26F32EC10F0829C829ECCEF0CF01C
:10199800330E0001AB19D8A4D4EF0CF0D6EF0CF03D
:1019A800DCEF0CF082EC0FF0829C829EDCEF0CF0F6
:1019B800340E0001AB19D8A4E4EF0CF0E6EF0CF0FC
:1019C800ECEF0CF02AEC0FF0829C829EECEF0CF00E
:1019D800000E026E640E016E54EC11F0A1EF0CF0D3
:1019E800A1EF0CF0F6EF0CF000EF00F020EE11F094
:1019F800070EDE6AE806FDE209500A100B100C100B
:101A08000D100E100F101010D8B40DEF0DF00FEFD1
:101A18000DF06BEF0DF0010E196E1FEF0DF0D89061
:101A280009360A360B360C360D360E360F3610369A
:101A3800192A1FEF0DF010AE24EF0DF026EF0DF070
:101A480013EF0DF02AEF0DF02AEF0DF0D8901136B4
:101A58001236133614361536163617361836095018
:101A6800015C0A5002580B5003580C5004580D5092
:101A780005580E5006580F50075810500858D8A04F
:101A880048EF0DF04AEF0DF05DEF0DF00950015EE3
:101A98000A50025A0B50035A0C50045A0D50055A5A
:101AA8000E50065A0F50075A1050085A11805DEF11
:101AB8000DF0D89010320F320E320D320C320B323C
:101AC8000A320932192E2AEF0DF06BEF0DF011C012
:101AD80001F012C002F013C003F014C004F015C0E6
:101AE80005F016C006F017C007F018C008F012007D
:101AF80009500A100B100C100D100E100F101010BA
:101B0800D8B489EF0DF08BEF0DF0DDEF0DF0010E7D
:101B1800116E9BEF0DF0D89009360A360B360C364D
:101B28000D360E360F361036112A9BEF0DF010AE1B
:101B3800A0EF0DF0A2EF0DF08FEF0DF0A6EF0DF076
:101B4800A6EF0DF00950015C0A5002580B500358DB
:101B58000C5004580D5005580E5006580F50075891
:101B680010500858D8A0BBEF0DF0BDEF0DF0CFEF27
:101B78000DF00950015E0A50025A0B50035A0C50DE
:101B8800045A0D50055A0E50065A0F50075A105055
:101B9800085ACFEF0DF0D89010320F320E320D32B6
:101BA8000C320B320A320932112EA6EF0DF0DDEF9E
:101BB8000DF001C001F002C002F003C003F004C040
:101BC80004F005C005F006C006F007C007F008C01D
:101BD80008F0120003500410D8B4F5EF0DF0F7EF39
:101BE8000DF002EF0EF003500410D8A4FEEF0DF034
:101BF80000EF0EF007EF0EF002EF0EF0015042EC8E
:101C080013F05CEF0EF020EE04F00350D9260450D8
:101C1800DA22DE50DE10D8B414EF0EF016EF0EF014
:101C280033EF0EF020EE04F00350D9260450DA22E8
:101C380010EE02F00350E1260450E222DE50E65C8A
:101C4800E650800A096EDE50800A0958D8B02FEF96
:101C58000EF031EF0EF05CEF0EF033EF0EF020EEE9
:101C680002F00350D9260450DA22DECF05F0DDCF8A
:101C780006F003C0D9FF04C0DAFFDECF07F0DDCFDE
:101C880008F005500724D96E06500820DA6E01C006
:101C9800DFFF20EE02F00350D9260450DA22DE2AB4
:101CA800000EDD225CEF0EF05CEF0EF05CEF0EF044
:101CB8001200000166A163EF0EF065EF0EF071EF00
:101CC8000EF013C00AF014C00BF011C00CF012C0D3
:101CD8000DF04CEC12F071EF0EF016BE76EF0EF030
:101CE80078EF0EF07EEF0EF015C01AF016C01BF05C
:101CF80082EF0EF0000E1B6E000E1A6E000E196EAB
:101D0800000E186E96EF0EF0000E026E200E016E99
:101D180011C003F012C004F0EEEC0DF0184A192AB5
:101D280096EF0EF01A50185C1950800A176E1B5067
:101D3800800A1758D8A0A3EF0EF0A5EF0EF088EF91
:101D48000EF0000166B1ABEF0EF0ADEF0EF0B9EF9B
:101D58000EF013C00AF014C00BF011C00CF012C042
:101D68000DF04CEC12F0B9EF0EF013C001F014C0F6
:101D780002F023EC12F01A500124116E1B500220BD
:101D8800126EC7EF0EF0120092C001F093C002F07D
:101D9800000E046E0A0E036ED4EC10F001C09AF027
:101DA80002C09BF092C001F093C002F0000E046ED6
:101DB8000A0E036E18EC11F001C09CF002C09DF0F1
:101DC8009AC001F09BC002F0000E046E0A0E036E6A
:101DD80018EC11F001C09EF002C09FF09AC001F00B
:101DE8009BC002F0000E046E0A0E036ED4EC10F0D5
:101DF80001C0A0F002C0A1F000019C513009946F0D
:101E08009E513009956FA0513009966F970E566E06
:101E1800000E576E010E586E080E596EA0C05AF08B
:101E2800A1C05BF09EC05CF09FC05DF09CC05EF0FE
:101E38009DC05FF0F4EC11F0010E0B6E970E0C6E66
:101E4800000E0D6E010EBEEC12F01200010E0B6EAC
:101E5800110E0C6E080E0D6E020EBEEC12F0020E84
:101E68000001A36F040EA26FBA0EE82EFED7A22FB0
:101E7800FCD7A32FFAD700F0350E816E000E0001B3
:101E8800A56F000EA46F000E83B6010EA66F000E9C
:101E9800A86F000EA76F51EF0FF0D58ED750A36F24
:101EA800A26BD650A225A76F000EA321A86FA7C0CA
:101EB80092F0A8C093F0C8EC0EF00001A8BF6EEF36
:101EC8000FF0A85109E13D0EA75DD8A06EEF0FF005
:101ED80070EF0FF051EF0FF0300E816E78EF0FF0CA
:101EE80051EF0FF051EF0FF0D59EF2949288200E2B
:101EF800D56E000ED76E000ED66E1200010E0B6E58
:101F0800320E0C6E080E0D6E020EBEEC12F0020EB2
:101F18000001A36F040EA26FBA0EE82EFED7A22FFF
:101F2800FCD7A32FFAD700F03A0E816E000E0001FD
:101F3800A56F000EA46F000E83B6010EA66F000EEB
:101F4800A86F000EA76FA9EF0FF0D58ED750A36F1B
:101F5800A26BD650A225A76F000EA321A86FA7C019
:101F680092F0A8C093F0C8EC0EF00001A8BFC6EF2D
:101F78000FF0A85109E13D0EA75DD8A0C6EF0FF0FC
:101F8800C8EF0FF0A9EF0FF0300E816ED0EF0FF011
:101F9800A9EF0FF0A9EF0FF0D59EF2949288200ECA
:101FA800D56E000ED76E000ED66E1200010E0B6EA7
:101FB8001C0E0C6E080E0D6E020EBEEC12F0020E18
:101FC8000001A56F040EA46FBA0EE82EFED7A42F49
:101FD800FCD7A52FFAD700F0390E816E000E00014C
:101FE800A76F000EA66F000E83B6010EA86F000E35
:101FF800AA6F000EA96F01EF10F0D58ED750A56F0C
:10200800A46BD650A425A96F000EA521AA6FA9C05C
:1020180092F0AAC093F0C8EC0EF00001AABF1EEF20
:1020280010F0AA5109E18D0EA95DD8A01EEF10F09D
:1020380020EF10F001EF10F0300E816E28EF10F055
:1020480001EF10F001EF10F0D59EF2949288200E67
:10205800D56E000ED76E000ED66E1200010E0B6EF6
:10206800270E0C6E080E0D6E020EBEEC12F0020E5C
:102078000001A56F040EA46FBA0EE82EFED7A42F98
:10208800FCD7A52FFAD700F0360E816E000E00019E
:10209800A76F000EA66F000E83B6010EA86F000E84
:1020A800AA6F000EA96F59EF10F0D58ED750A56F03
:1020B800A46BD650A425A96F000EA521AA6FA9C0AC
:1020C80092F0AAC093F0C8EC0EF00001AABF76EF18
:1020D80010F0AA5109E18D0EA95DD8A076EF10F095
:1020E80078EF10F059EF10F0300E816E80EF10F09D
:1020F80059EF10F059EF10F0D59EF2949288200E07
:10210800D56E000ED76E000ED66E1200949C948E7B
:102118003CC001F03DC002F03EC003F03FC004F0F7
:10212800010E09EC0AF001C013F002C014F003C05C
:1021380015F004C016F0000E0F6E240E106EF40E8B
:10214800116E470E126EE6EC06F00FC028F010C0B4
:1021580029F011C02AF012C02BF0000E2C6E000ED0
:102168002D6E800E2E6EBF0E2F6E24EC04F028C04C
:1021780040F029C041F02AC042F02BC043F040C0D3
:1021880001F041C002F042C003F043C004F0CAECC1
:102198000BF00150AF6E200EAC6E900EAB6E1200BD
:1021A800000E066E000E056E03500410D8B4DFEF63
:1021B80010F0E1EF10F013EF11F0010E076EEBEFE6
:1021C80010F0D89003360436072AEBEF10F004AE6F
:1021D800F0EF10F0F2EF10F0E5EF10F0F6EF10F07E
:1021E800F6EF10F0D890053606360350015C04501F
:1021F8000258D8A002EF11F004EF11F00BEF11F024
:102208000350015E0450025A05800BEF11F0D8907C
:1022180004320332072EF6EF10F013EF11F005C069
:1022280001F006C002F0120003500410D8B41FEFEA
:1022380011F021EF11F04FEF11F0010E056E2BEFA9
:1022480011F0D89003360436052A2BEF11F004AEAE
:1022580030EF11F032EF11F025EF11F036EF11F0F9
:1022680036EF11F00350015C04500258D8A03FEF3C
:1022780011F041EF11F047EF11F00350015E0450E7
:10228800025A47EF11F0D89004320332052E36EF88
:1022980011F04FEF11F001C001F002C002F012007E
:1022A800000E046E000E036E80EF11F0000E066E35
:1022B800000E056E065009E1A50E055CD8A067EF73
:1022C80011F069EF11F06DEF11F07CEF11F07CEF78
:1022D80011F0054A062A065009E1A50E055CD8A0AA
:1022E80078EF11F07AEF11F06DEF11F07CEF11F04B
:1022F800034A042A80EF11F00150035C025004588D
:10230800D8A089EF11F08BEF11F05AEF11F08DEF93
:1023180011F0120050C054F051C055F0000E0001E9
:10232800616F000E606FAEEF11F04EC03CF04FC011
:102338003DF0540E3E6E000E3F6E52C040F053C04A
:1023480041F0F7EC0AF03C50000160273D50612352
:10235800AEEF11F054C0F6FF55C0F7FF0800F55076
:102368000009D8A4BAEF11F0BCEF11F099EF11F001
:1023780060C04EF061C04FF01200D9EF11F009C0F3
:10238800F6FF0AC0F7FFF86A070EF76403D00800E3
:10239800F55005D0F6CFE1FFF7CFE2FFE75072EC3A
:1023A80012F0094A0A2AD9EF11F009C0F6FF0AC04B
:1023B800F7FFF86A070EF76403D00800F55005D058
:1023C800F6CFE1FFF7CFE2FFE7500009D8A4EFEF1F
:1023D80011F0F1EF11F0C3EF11F0F3EF11F012006B
:1023E8005A0E00018A6F000E8B6F56C08CF057C0D2
:1023F8008DF0000E8F6F000E8E6F000E916F000E25
:10240800906F8C0E4E6E000E4F6E58C050F059C033
:1024180051F08A0E526E000E536E8EEC11F04EC0C3
:1024280088F04FC089F000018E515624D96E8F5123
:102438005720DA6E000EDF6E22EF12F0120001C094
:1024480005F002C006F02DEF12F0014A022A2DEF26
:1024580012F001C0D9FF02C0DAFFDF50D8A437EF6D
:1024680012F039EF12F029EF12F03BEF12F005C02D
:1024780003F006C004F0031E041E034A042A015098
:102488000324016E02500420026E4BEF12F012007A
:10249800000E106E000E0F6E5FEF12F00EC001F00E
:1024A800026A0CC003F00DC004F0EEEC0DF00F4A08
:1024B800102A5FEF12F00F500A24D96E10500B202B
:1024C800DA6EDF500E6E0E50D8A46DEF12F06FEF7B
:1024D80012F052EF12F071EF12F01200086E08C0FD
:1024E80007F0F00E07168C500F0B07108C6E8C80BF
:1024F8008C8200F08C92000E026E010E016E54EC7C
:1025080011F008C007F0073AF00E07168C500F0BB1
:1025180007108C6E8C8200F08C92000E026E030EF7
:10252800016E54EC11F01200086E08C007F0F00EAE
:1025380007168C500F0B07108C6E8C908C8200F055
:102548008C92000E026E010E016E54EC11F008C060
:1025580007F0073AF00E07168C500F0B07108C6E19
:102568008C8200F08C92000E026E030E016E54EC09
:1025780011F012000E6E000E0F6E020E0E60C7EF05
:1025880012F0C9EF12F0D2EF12F00B500F0B8009C6
:102598000F6E0F5098EC12F0DBEF12F00B500F0B90
:1025A800C0090F6E0F5098EC12F0DBEF12F00CC060
:1025B80009F00DC00AF0C1EC11F01200F0EF12F0B2
:1025C80002C0F6FF03C0F7FF0800F55019EC13F03E
:1025D800024A032AF0EF12F002C0F6FF03C0F7FF29
:1025E8000800F5500009D8A4FCEF12F0FEEF12F035
:1025F800E4EF12F000EF13F01200000E956E000EDB
:10260800026E0F0E016E54EC11F0020E98EC12F0EF
:10261800280E98EC12F0010E98EC12F00C0E98ECC3
:1026280012F0060E98EC12F01200016E1CEF13F077
:102638009EA821EF13F023EF13F01CEF13F025EF02
:1026480013F001C0ADFF12002AEF13F09EAA2FEF7E
:1026580013F031EF13F02AEF13F033EF13F0AE500D
:1026680036EF13F0120000EE60F0280EEE6AE8066E
:0E267800FDE1000EF86E000173EF0CF0120091
:020000040020DA
:08000000FFFFFFFFFFFFFFFF00
:020000040030CA
:0E00000000451F1EFF0181FF0FC00FE00F40E3
:00000001FF
